:020000040800F2
:1000000000A00020CD5F0008156000081560000802
:100010001560000815600008156000080000000069
:100020000000000000000000000000001560000853
:100030001560000800000000156000088107000836
:1000400015600008156000081560000815600008BC
:1000500015600008156000081560000815600008AC
:10006000156000081560000815600008156000089C
:10007000156000081560000815600008156000088C
:10008000156000081560000861050008156000088B
:10009000090B0008156000081560000815600008CD
:1000A000156000081560000815600008156000085C
:1000B000156000086D09000815600008156000084B
:1000C000156000081560000815600008156000083C
:1000D000156000081560000815600008156000082C
:1000E00015600008156000080D0B00081560000879
:1000F000156000081560000815600008156000080C
:100100000000000000000000000000001560000872
:1001100015600008156000081560000815600008EB
:1001200015600008156000081560000815600008DB
:1001300015600008156000080000000000000000C5
:100140001560000815600008156000080000000038
:10015000000000000000000000000000000000009F
:100160000000000000000000156000081560000895
:100170001560000800000000000000000000000002
:080180000000000015600008FA
:1001880010B5054C237833B9044B13B10448AFF3C9
:1001980000800123237010BD440A002000000000E5
:1001A80088010008084B10B51BB108480849AFF38F
:1001B80000800848036803B910BD074B002BFBD02B
:1001C800BDE81040184700BF000000008801000883
:1001D800480A0020440A0020000000000000000037
:1001E80008B54FF40020012103F0C8FB4FF400309C
:1001F800012103F0C3FB01214FF4802003F0BEFB73
:100208004FF4887003F03CFB4FF08050012103F05D
:10021800B5FB0120014603F0C9FB4FF40060012142
:10022800BDE8084003F0B6BB30B591B00024ADF886
:100238000640FFF7D5FF08A802F040FB4FF0A040AA
:10024800012102F0DBFB4FF0A040214602F0C0FB89
:100258004FF0A04002F0AEFB4FF0A04002F0C0FB10
:1002680004460028F8D14FF0A04002F0A9FB334B18
:1002780001211860324802F0C1FB3148214602F0E2
:10028800A7FB2F4802F096FB2D4802F0A9FB044675
:100298000028F9D12A4802F093FB2A4B04941860ED
:1002A80003A906234FF0A0400393059406948DF804
:1002B8001C4002F031FB03A9214802F02DFB4FF44A
:1002C80030754FF4806201234FF0A04008A90B92CB
:1002D8008DF83C30089409940C940D940E940A956A
:1002E80002F0C6FA08A9164802F0C2FA164A1749D7
:1002F800174B14600C6003F13C0243F8044F93421F
:100308004FF00005F9D14FF0A0400421012202F07E
:1003180001FE08214FF0A040012202F0FBFD12224D
:10032800012302A88DF80A508DF809508DF808208D
:100338008DF80B3003F048F811B030BDC00B002029
:1003480000010050C40B0020C80B0020CC0B00207B
:10035800140B00204FF0A040012108B502F020FB4B
:100368000B48012102F01CFB4FF0A040012102F0D4
:10037800DBFD0028F8D00648012102F0D5FD002851
:10038800F9D04FF0A040BDE8084002F09BBC00BF88
:100398000001005010B5094C4FF0A04002F09CFC41
:1003A800204602F099FC4FF0A040002102F0F8FA34
:1003B80020460021BDE8104002F0F2BA00010050CA
:1003C80008B5FFF7E7FF4FF0A04002F025FA07480D
:1003D80002F022FA0649074B00220A6003F13C01A9
:1003E80043F8042F8B42FBD108BD00BF0001005029
:1003F800CC0B0020140B00202DE9F043334D431E95
:10040800D5F800E09AB20EF10101042A83B004463F
:10041800296043D82E4A04F10D0102EB8300C66D12
:1004280052F8217052F8230002EB81020123D2F81E
:100438005C90B340274A0093032669464FF00008B2
:1004480022F81E408DF804608DF8078002F00EFF38
:10045800012303FA09F3E4B26946384600938DF89C
:1004680004608DF8078002F001FF214633464FF003
:10047800A0402A7802F0B0FB2146334616482A7875
:1004880002F0AAFB4FF0A040297802F007FC297877
:10049800114802F003FC03B0BDE8F083A0F10B02A1
:1004A800022A04D80A4AE11D02EB8300B7E7A0F14B
:1004B8000E03012BEFD8064BC21D03EB820153F844
:1004C8002270D1F85C9000231846B3E7CC0B0020CB
:1004D80000000020900B0020000100500138024B62
:1004E80043F82010704700BF180B002010B510EE1D
:1004F800104A84B001A803F0E3FB204604F03CFB5B
:1005080002460B4612A1D1E9000104F0B3FC04F045
:1005180099FD80B20023421E01A94FF0804002924B
:10052800ADF80430ADF80C30ADF806308DF80E306B
:1005380003F06EFB4FF08040202104F05BF94FF090
:100548008040012103F02CFC04B010BDAFF3008003
:1005580000000000882A91412DE9F0414FF0A040A9
:10056800042102F015FD58BB4FF0A040082102F00D
:100578000FFDC8B1DFF87480184AD8F8003000249D
:10058800A342146010DD164D164E174F35F8023F82
:10059800013B56F8233013B157F824009847D8F890
:1005A80000300134A342F1DC4FF0A040042102F0F6
:1005B800FBFC4FF0A0400821BDE8F04102F0F4BC7C
:1005C800064C4FF0A040256802F0A2FB2368064ABB
:1005D800013342F825002360C6E700BFC80B00209E
:1005E8008E0B0020180B0020540B0020CC0B002091
:1005F80008B54FF40030012103F0C0F94FF4802012
:10060800012103F0BBF94FF40020012103F0B6F9F2
:100618004FF48010012103F0B1F94FF400100121CB
:1006280003F0ACF94FF480000121BDE8084003F065
:10063800A5B900BF08B54FF40030002103F09EF9BA
:100648004FF48020002103F099F94FF40020002195
:1006580003F094F94FF48010002103F08FF94FF460
:100668000010002103F08AF94FF480000021BDE852
:10067800084003F083B900BFF0B583B0044668466C
:100688001E460F46154602F04FFE124830F8143049
:1006980000936FB98DF80470BEB98DF8076000EB50
:1006A80084006946D0F8B00002F0E0FD03B0F0BD68
:1006B800002D18BF0125012203238DF806508DF85F
:1006C80004208DF80530002EE7D001238DF807307F
:1006D800E5E700BFD49B0008064B10B4044603EBC3
:1006E80080000A46D0F8B00033F814105DF8044BC7
:1006F80002F044BED49B0008044B03EB800233F89D
:100708001010D2F8B00002F021BE00BFD49B000840
:1007180000F0C2BA00F018BB00F018BB00F024BB10
:1007280000F034BB30B591B001A802F063FF029B22
:100738000849094A094CA1FB03139B09013BF02511
:1007480000200721536084F823509060116011B095
:1007580030BD00BFD34D621010E000E000ED00E0B6
:1007680082B0044A0190019B13601368002BFCD1EE
:1007780002B07047600A0020054B1A6812B11A6867
:10078800013A1A60034A1368013B1360704700BFBF
:10079800600A0020B8000020F0B5274A2748284DF5
:1007A8002849DFF8B4C0DFF8B4E0274F274E00240B
:1007B800146085B004602346224601202C604CF862
:1007C80023204EF8230047F82320F2540133102B3E
:1007D80041F8042F4FF000044FF00105EFD12946EE
:1007E800022003F0E3F801A803F06AFA01A9184B04
:1007F80018480293ADF80440ADF80C40ADF8064037
:100808008DF80E4003F004FA1D2368468DF8003079
:100818008DF802408DF801408DF8035002F0D4FDA8
:1008280029460C4803F0BCFA0A4829462A4603F030
:1008380027FF204605B0F0BD500C0020540C0020C6
:10084800580C00200C0C0020AC0C00209C0C002044
:100858007FFC0A0000040040D00B00205C0C002044
:1008680010B50A4B0A4C4FF00052C3F880202046BE
:100878000022012103F004FF2046002103F090FA32
:100888000220002103F092F8002010BD00E100E0F2
:1008980000040040134B70B41C68102C0BD01C686B
:1008A800114D01341C60002355F823400E4E34B11D
:1008B8000133102BF8D14FF0FF3070BC70470B4D4F
:1008C80046F8230045F82320094E0A4D0A480B4AEA
:1008D800366845F8236040F82310D454184670BC95
:1008E800704700BF540C0020D00B00205C0C002087
:1008F800580C0020AC0C0020100C00209C0C002090
:100908000649074A074B10B401240C54126843F8EF
:1009180020205DF8044B0020704700BF9C0C00208D
:10092800580C0020AC0C002070B4094A094E0A4D3E
:100938000A490B4C0023335445F8203042F8203044
:100948000A6844F82030013A18460A6070BC7047BB
:10095800D00B00209C0C0020AC0C0020540C002074
:10096800100C00202DE9F04F2D4883B0012103F031
:100978009FFE00284ED02B4B1B68002B43D0DFF87E
:10098800B480294ED8F80030284DDFF8ACB00133D8
:10099800C8F80030C146B2460024335D73B35BF833
:1009A8002420234F00234AB3D8F8000057F824E046
:1009B8005BF82420B0EB0E004FF0000161EBEE7104
:1009C80004F060FB134319D1D9F8000057F824202C
:1009D800DFF868E00021D317994208BF90420DD094
:1009E8005EF82430CBB90AF804302A6847F8243076
:1009F8004BF8243001939047019B2B600134102C55
:100A080005F10405C9D10648012103B0BDE8F04F3E
:100A180003F058BE03B0BDE8F08F2B689847EDE7A8
:100A280000040040540C00209C0C0020100C0020F6
:100A3800AC0C0020580C0020D00B00205C0C0020CF
:100A480008B504F067FF04F0A9FF04F0DFFF01F028
:100A58000DF9094A09496423136001E0136813B1C9
:100A68000B68052BFAD1064B00221A705A709A703F
:100A7800BDE8084005F034B8B80000207C0A002022
:100A8800640A002010B5044605F05EFBC1B220469A
:100A9800BDE8104005F00AB8084A108880B2431E25
:100AA8009BB2138040B1064906480B78DBB25A1C4A
:100AB800D2B20A70C05CC0B2704700BFEC0D002013
:100AC800640A0020EC0C0020034B9878A0F1010088
:100AD800B0FA80F040097047640A0020034A0449CC
:100AE8000023137053700B8093707047640A0020C2
:100AF800EC0D0020014B1888C0B27047EC0D0020A7
:100B080000F048B908B5002000F0B8FB1220BDE895
:100B1800084002F039BB00BF10B50446E206214880
:100B28004FF0100125D502F025FCA3061D484FF013
:100B3800200125D502F01EFC62061A484FF040013C
:100B480025D502F017FC230616484FF0800125D45E
:100B580002F012FC04210122124802F00FFC0220CC
:100B6800FFF7FEFD0F4804210022BDE8104002F007
:100B780005BC02F001FCA3060A484FF02001D9D4B5
:100B880002F0FAFB620607484FF04001D9D402F0A0
:100B9800F3FB230603484FF08001D9D502F0EAFBA6
:100BA800D8E700BF000C004810B50446E20721480A
:100BB8004FF0100125D502F0DDFBA3071D484FF0CB
:100BC800200125D502F0D6FB62071A484FF04001F4
:100BD80025D502F0CFFB230716484FF0800125D416
:100BE80002F0CAFB04210122124802F0C7FB0220CE
:100BF800FFF7B6FD0F4804210022BDE8104002F0BF
:100C0800BDBB02F0B9FBA3070A484FF02001D9D4B5
:100C180002F0B2FB620707484FF04001D9D402F056
:100C2800ABFB230703484FF08001D9D502F0A2FBA4
:100C3800D8E700BF000C004810B50446FFF76CFF6A
:100C48002046BDE81040FFF7AFBF00BF10B5012137
:100C580004460022054802F091FB2046FFF75CFF9E
:100C68002046BDE81040FFF79FBF00BF000C0048BA
:100C780010B5012104460A46054802F07FFB2046CC
:100C8800FFF74AFF2046BDE81040FFF78DBF00BFC1
:100C9800000C0048704700BFF0B52A4E83B04FF4EF
:100CA8008010012102F06AFE0124002530466946C1
:100CB800F023032700938DF804408DF806508DF833
:100CC800057002F0D3FA07236946304600938DF881
:100CD80004408DF806508DF8057002F0C7FA3046CA
:100CE8002A46042102F04AFB304621462A4602F0F1
:100CF80045FB2A460221304602F040FB1020FFF750
:100D08002FFD3020FFF708FF0520FFF729FD3020D1
:100D1800FFF702FF2046FFF723FD3020FFF7FCFE18
:100D28002020FFF7F9FE2820FFF790FF0C20FFF79F
:100D38008DFF2046FFF78AFF0620FFF787FF03B0E5
:100D4800F0BD00BF000C0048FFF792BF032988BF21
:100D58000021044B5B5C132888BF00201844C0B2F4
:100D6800FFF774BFE09D000810B582B00023044669
:100D78000193019BE05CFFF77BFF019B013301932B
:100D8800019BE35C002BF4D102B010BD0120FFF7FA
:100D98005DBF00BF4D490B6830B54D4C4D4D9BB202
:100DA800238022882B881A40920589B007D54FF6F0
:100DB800FF5249480A6002780132D2B20270228892
:100DC8001A40100439D4228802F4806213422BD1CD
:100DD800228802F40052134203D03C4A4DF6FF71B8
:100DE8001160228802F48052134214D1228802F43E
:100DF800807213420DD0354A384B4FF6FF611160AF
:100E08001B6819041DD4344B00225A60072000F0D7
:100E180035FA09B030BD2D4B4EF6FF721A6000202E
:100E280000F02CFA2B88E1E7284A2D4B4FF6FF31CA
:100E38005B68116098472B88CAE700F033FF2B885E
:100E4800C1E725494B6801334B604B68032BDDD95B
:100E580052F8043C13F00803A2F10402D6D1126838
:100E6800204892B28A6050F8042B08AC04EB830443
:100E7800013392B2082B44F8202CF4D18B681A4A1B
:100E8800124843F001038B608B689BB213608B6838
:100E980023F001038B608B689BB2136003680B4AD5
:100EA8005B05FBD54FF6FF330E481360002308AAF5
:100EB80002EB8302013352F8202C082B92B240F83F
:100EC800042BF4D100234B60A0E700BF445C004032
:100ED800EE0D0020480E0020680A0020485C004003
:100EE8001C010020005C0040405C0040034B9B7AE2
:100EF80013B1034B05221A60704700BF240E00206F
:100F08007C0A0020014B04221A6070477C0A0020EA
:100F1800034B1A78202A04BF00221A70704700BFBA
:100F2800740A0020704700BF212810B5034603D07B
:100F3800202810D0022010BD0E4B1A68137803F039
:100F48007F03212BF6D10C4991610024548220465D
:100F58008847204610BD074A1268117801F07F01C2
:100F6800212903D0054A1370022010BD0348044903
:100F78000370E9E7440E0020C10F0008740A00203E
:100F8800D90F0008074B1B681B7803F07F03212B40
:100F980001D00220704700F0DF00022814BF0220B1
:100FA80000207047440E002009B102207047012834
:100FB8008CBF02200020704708B103487047034BDC
:100FC8001B6808221A82704714010020440E002072
:100FD80008B103487047034B1B6808221A82704700
:100FE80014010020440E002010B504F045FD054B07
:100FF8001B6800249C7200F095F801F08DFB024BF1
:101008001C6010BD440E00207C0A0020334B344A7B
:101018001B68D27910B500245A729C72DC72204683
:1010280000F096FF20464FF4007100F0AFFF204615
:10103800102100F0C3FF2046402101F047F980212C
:10104800204601F033F9204601F05EF8254B204692
:1010580093F8341001F08CF9204601F021F821466C
:10106800012000F093FF0120C02101F01FF90120A9
:10107800202100F0A3FF2146012000F0B9FF022043
:101088004FF4C06100F082FF02204FF4807101F03C
:101098000DF92146022000F0ABFF0220202100F0CC
:1010A8008DFF2146032000F071FF03204FF4887163
:1010B80001F00CF90320402101F05AF903204FF404
:1010C800405100F095FF2146032000F077FF2046AD
:1010D80000F072FD044B01221A6010BD440E00207E
:1010E800449E0008140100207C0A0020014900F0F9
:1010F80005BB00BF4C010020014900F0FFBA00BF4A
:1011080054010020054B1B68DB78042B04D80449E4
:1011180001EBC30100F0F2BA00207047440E002032
:101128005C01002038B5012004F098FC064D074BFF
:10113800074C00224FF4E051012018601A60104655
:101148002A602180196038BD445C0040405C004042
:10115800480E002038B5064D064B002401222A60AF
:1011680020461C6004F07AFC032320462B6038BD1F
:10117800405C0040445C004070B483B00023314AB6
:101188000193146830493148A4B251F8042B92B243
:1011980040F823200133082BF7D124F00105294B0F
:1011A8002B4944F48062ADB2144645F4806642F09F
:1011B80001021C601A601E600B68254A5C05FBD59D
:1011C8004FF6FF3320491360002350F823200133E2
:1011D80092B2082B41F8042BF7D11A4A1D481E4930
:1011E8001B4C45F48165156013689BB243F00403FA
:1011F800136003680193036823F0030343F00103BA
:1012080003600B6943F004030B612368DB0410D50A
:101218004EF6FF73236014684FF6F773234013608C
:10122800019B03600B6923F004030B6103B070BCDE
:10123800704730BF0B6923F004030B6103B070BC27
:10124800704700BF405C0040005C0040F40D002087
:10125800445C00400070004000ED00E010B5064C12
:1012680022684FF6FB731340236004F0A3FB4FF48E
:101278003F43236010BD00BF405C004038B5324C8E
:10128800072818BF20702378052B4BD8DFE803F018
:10129800181F30353F0363782B49013BDBB263707D
:1012A800637803F0FF02002B3ED12848284C0568DC
:1012B8004FF6EF732B40062503600D70226038BD92
:1012C800234B1B68002B30D00523237038BD1F4DDE
:1012D8002A684FF6FB7313402B6004F06BFB1C4B22
:1012E8004FF43F4004210122286021701A6038BD64
:1012F800022203236270237038BD6378124A013BCF
:10130800DBB2637063787BB90423137038BD0F4A6E
:1013180013689BB243F0100305200A211360207064
:10132800617038BD0623237038BD084D2A684FF612
:10133800FB7313402B6004F03DFB4FF43F42062340
:101348002A60237038BD00BFF00D0020405C0040CB
:10135800780A002008B538B1064B1B681B68984707
:10136800054B18680A3008BD034B1B6801221A8216
:1013780008BD00BF400E0020440E002008B538B15B
:10138800064B1B689B689847054B18680C3008BDCE
:10139800034B1B6801221A8208BD00BF400E0020C3
:1013A800440E002008B51F4B002832D01E481A688A
:1013B80000210180137813F07F0316D0012B27D06A
:1013C800022B24D1527902F00F039B0003F18043D2
:1013D80003F5B84312061B681FD403F44053B3F552
:1013E800805F0ED1012303700BE0527A930654BF3D
:1013F8000378022351064CBF43F0010323F0010395
:1014080003700A4B1B681B699847074808BD0846C4
:1014180008BD1B6802221A8208BD03F03003102B96
:10142800EFD1DFE7440E0020140E0020400E00200C
:101438002DE9F041234F3C68238A267A23B9042EEC
:101448002AD0A58A042603E0A58AAB42FAD9022647
:101458009D4228BF1D462846A3699847804600201C
:1014680000F044FF2A460146404600F01BFD29468D
:10147800002000F05BFF638A228A13481349521B3D
:101488001D4430230380228265824FF440533C6818
:101498000B802672BDE8F0810D490A7862B10D48CB
:1014A8000D4A0068084D80B2024452003020138073
:1014B80053800B702880ECE7034B10221A80072614
:1014C800E7E700BF440E00204C0E00204A0E002023
:1014D800800A0020505C0040023000200B4B0C4A70
:1014E8001B685178DA78914201D2022070479978C6
:1014F8000029FAD110B59C880CB1022010BD05490D
:101508009A720B685B689847204610BD440E00200D
:10151800A0010020400E002038B5104A104C126877
:1015280023685879D9789369984723689A7A0AB9C9
:10153800022038BD0028FBD11A79002AF8D19D78FD
:10154800002DF5D1074B1B68DB689847236859794C
:10155800DA78D9721A73284638BD00BF1C0E0020ED
:10156800440E0020400E002038B5314B1B68187817
:1015780010F07F0003D0022806D0022038BD5A7A26
:1015880022F020025A7238BD5A88002AF6D11A79F8
:10159800002AF3D15A7922F08000840004F18041B6
:1015A800150601F5B841234D09682D784CBF01F0A7
:1015B800300101F44051A842DFD20029DDD09B7AE6
:1015C800002BDAD004F1804404F5B84412062368ED
:1015D80009D503F03003102B1ED0174B1B685B692D
:1015E8009847002038BD03F44053B3F5805FF4D129
:1015F800D8B9124B93F82C1000F0BAFE236823F4E4
:10160800804323F070039BB283F4405343F40043B8
:1016180043F080032360E0E7C4B2204600F01AFEDE
:101628002046302100F0CAFCD7E700F001FEE5E7CC
:10163800440E0020A0010020400E00201C010020C4
:1016480038B5224B1868427922F080018C0004F1E9
:101658008043150603F5B8431D4D1B682D784CBF14
:1016680003F0300303F44053A94201D3022038BDEC
:1016780041880029FAD1002BF8D0837A002BF5D0C5
:1016880004F1804404F5B8441206236811D523F404
:10169800E04323F040039BB283F0100343F400437C
:1016A80043F0800323600B4B1B689B69984700201D
:1016B80038BD23F4804323F070039BB283F4805336
:1016C80043F4004343F080032360ECE7440E00201A
:1016D800A0010020400E002008B5064A064B1268FB
:1016E8001968537A43F020035372CB699847002056
:1016F80008BD00BF440E0020400E0020054B1A68AC
:10170800538A10B10868184470478988CB1A138225
:10171800704700BF440E002010B50C4B002093F812
:101728002C1000F025FE0A4B1B68187A082806D1F1
:101738000849094B4FF4805410220C801A80A0F1FC
:101748000900B0FA80F0400910BD00BF1C0100205C
:10175800440E00204A0E00204C0E0020F0B5A94B84
:10176800A94E1A683468A94B92B21344227A5B00D6
:10177800092A83B01D6847D0ADB26D0005F18045D8
:1017880005F5C0452B7823706B786370A88800F046
:10179800BDFF60802889376800F0B8FFB8803468DA
:1017A800AB89E38001222272002B32D060780628B0
:1017B80000F08980002848D16188002900F09780CE
:1017C800934D2B681B699847032833684DD01A8AB4
:1017D8004FF6FF718A4248D002280FD072B193F9B0
:1017E80000100029C0F2B8808A4903224FF4405003
:1017F80008801A72FFF790FF03B0F0BD08221A7232
:10180800FFF78AFF03B0F0BDE38801222272002BA4
:10181800CCD12378657813F07F032CD0012B00F00E
:10182800B080022B00F0CF80794B1B6828465B699B
:101838009847032800F001813468002834D0082331
:101848002372FFF769FF03B0F0BD082861D1237840
:101858005B06B5D1704BA36100206082984733685E
:101868001A8A4FF6FF718A42B8D109221A72FFF715
:1018780053FF03B0F0BD092D00F0C080052D00F026
:101888009080032D00F0A880012DCDD1E378012BA5
:10189800CAD1A388002BC7D1637A9F06C4D5FFF7A6
:1018A80063FE0028C0D13468564A5C4B12685C4914
:1018B80092B213445B0000221A805A80302006231B
:1018C80008802372BDE723785D067FF479AFA3789B
:1018D8004F4D012B00F0AE80022B5FD0032B7FF41D
:1018E80070AF2B685B6A002BB5D1062069E7636887
:1018F80023F47F43B3F5003F7FF462AF207810F004
:101908007F0040F09E80A388002B7FF459AF454BA1
:10191800A1E70A287FF454AF237803F07F03012B53
:101928007FF44EAFA37A002B3FF44AAF61880029B9
:101938007FF446AF6368364D23F47F43B3F5803FA9
:101948007FF43FAF2B6860799B699847002840F087
:10195800B7803468344B7EE7D98801910198824278
:1019680015D88A4274D22A49096891F82C0081B2A4
:101978008A4272D22D4A002010709982FFF758FDD2
:101988003EE70B2D7FF450AFFFF7C6FD89E7204AED
:1019980001991268198292F82C10EEE72B681B6ADD
:1019A800A1E794F90330002BFFF649AFA378002B89
:1019B8007FF445AFA388002B7FF441AFA37A002BB7
:1019C8003FF472AF3BE7012D3FF469AF032D7FF47D
:1019D8002BAFFFF735FE64E7E378012B7FF424AFE4
:1019E800A388002B7FF420AF637A114A43F02003C9
:1019F80012686372D3699847346855E7FFF76EFD3C
:101A08004FE700BF505C0040440E00200430002027
:101A18001C0E00204A0E00205D1300080230002032
:101A28004C0E0020AD13000885130008800A002022
:101A3800400E00202B68DB6955E7346809232372C0
:101A4800FFE601282FD0022811D008461E4DB8E61F
:101A58001D4A126892F82C108FE792FBF0F400FBF5
:101A68001422002A89D1194A0120107085E760796B
:101A780000F00F02930003F18043010603F5B84319
:101A880013491B6809784CBF03F0300303F4405333
:101A98008A4206D210F0700003D1002B7FF437AFD2
:101AA8008EE600208CE6084D60792B689B69984784
:101AB80030B93468A37A002B7FF429AF607880E6C8
:101AC800336858787DE600BF1C0E0020800A00208D
:101AD800A0010020F8B5324D2C68237A022B07D0DC
:101AE800042B05D0032B09D0052B07D0072B37D0A3
:101AF80008232372BDE8F840FFF70EBEA369228AC7
:101B0800B3B1B2B1A68A964228BF16463046984766
:101B1800228A638A921B334407462282638200200A
:101B280000F0F4FB32460146384600F0D7F9228A25
:101B3800EAB9A38A53B31B492C681B4A1B4B0620DE
:101B48002072126892B213445B0000221A805A80F5
:101B5800237A23723022BDE8F8400A80FFF7DCBD03
:101B6800134B1B68DB6898472C680823C1E7114BA7
:101B780000204FF4405201461A8000F0D7FB238A18
:101B8800A28A084930209A42088003D82C68032387
:101B98002372AEE7002BCFD02C6805232372A8E769
:101BA800440E00204C0E0020505C00400230002003
:101BB8001C0E00204A0E002070B40C4B1E787EB11B
:101BC8000B4C0022256842F4004140F60F732B406D
:101BD80041F0800101320B43964244F8043BF1D1B5
:101BE800044B40F08000186070BC7047A0010020D2
:101BF800005C00404C5C004010B5184C23681A7A11
:101C0800022A17D0042A15D0062A05D008221A72EB
:101C1800BDE81040FFF780BD5A78052A13D0104B55
:101C28001B689B689847236808221A72BDE8104011
:101C3800FFF772BDFFF7FCFB23681A7A1A72BDE83A
:101C48001040FFF769BD1A785206E8D1D878FFF737
:101C5800B3FF044B1B681B6A9847E0E7440E00205B
:101C68001C0E0020400E0020704700BF30B4074D06
:101C7800074A084C084B09492A600225084815728A
:101C8800236008601B6830BC184700BF440E002062
:101C9800240E00201C0E00201C010020400E0020F5
:101CA8007C0100202DE9F04782B00023DFF8609125
:101CB800DFF86881534DADF80630D8F80020524C53
:101CC800524EDFF85CA152484E4F91B212044BF6C7
:101CD800BF73A9F8001040F18A80028802F00F0251
:101CE800910001F1804101F5B8418AF800206ABBF2
:101CF800226892B22A802A8802F0300232802A882A
:101D080002F440522A802268134083F4005383F07F
:101D1800200343F4004343F0800323600388D8067C
:101D28003ED523689BB2ADF80630BDF806301905DC
:101D380060D4BDF806301BB2002BBEDA226840F62C
:101D48008F7313402360FFF7C5FE30E00B689BB22A
:101D5800ADF80630BDF806301BB2002B15DBBDF818
:101D680006301906A9D59AF800202A49930003F1EC
:101D7800804303F5B843013A186851F8221048F631
:101D88000F7202401A60884797E70C682248013AA8
:101D980040F68F73234050F822200B609047DEE70F
:101DA800226848F60F7313402360FFF725FF216868
:101DB8003A884BF6BF73D2043A8803EA010348BF56
:101DC80083F480539504328848BF83F40053D406C3
:101DD800328848BF83F01003900648BF83F0200381
:101DE80043F4004343F08003074A9BB2136002B0F8
:101DF800BDE8F087226840F68F7313402360FFF731
:101E0800ADFCD4E74A0E0020005C00404C0E0020D8
:101E1800EE0D0020F8000020DC000020445C0040AB
:101E2800200E0020F8B51A4D1A4C1B4F2E46236879
:101E38009AB21B0447F6FF712A8028D521603288A0
:101E480002F00F02930003F1804303F5B8433A70A0
:101E5800196808040ED40906E9D5D3F800E00F483C
:101E6800013A48F60F710EEA010150F82220196074
:101E78009047DCE7D3F800E00948013A40F68F7153
:101E88000EEA010150F8222019609047CFE7F8BD0B
:101E9800EE0D0020445C0040200E0020F8000020D9
:101EA800DC00002001F10051013201F540515210CF
:101EB8004FEA410110D030B40230002310F8015C21
:101EC80010F8024C44EA052421F8234001339A42D1
:101ED80000F10200F2D130BC704700BF01F100519F
:101EE800013201F5405152104FEA410105D051F835
:101EF800043B20F8023B013AF9D17047014B1860C6
:101F0800704700BF405C0040014B186880B27047C2
:101F1800405C0040014B1860704700BF445C0040C3
:101F2800014B186880B27047445C0040014B186848
:101F380080B27047485C0040014B1860704700BF92
:101F48004C5C0040014B186880B270474C5C004004
:101F58004FF6F873014A034013607047505C004025
:101F6800014B186880B27047505C0040800000F157
:101F7800804000F5B8400160704700BF800000F164
:101F8800804000F5B840006880B27047800000F1DA
:101F9800804000F5B840036823F4EC4323F0700355
:101FA800194389B201607047800000F1804000F554
:101FB800B840006800F4C060704700BF800000F1BE
:101FC800804000F5B840CA06036823F4E04323F0D4
:101FD80040039BB248BF83F010038A0648BF83F0D2
:101FE800200343F4004343F080030360704700BFBD
:101FF800800000F1804000F5B840CA04036823F46B
:10200800804323F070039BB248BF83F480538A0453
:1020180048BF83F4005343F4004343F08003036054
:10202800704700BF800000F1804000F5B8400129EA
:10203800036807D0022900D070474FF6EF721A40A4
:10204800026070474EF6FF721A400260704700BF88
:10205800800000F1804000F5B840006800F03000D2
:10206800704700BF800000F1804000F5B84000686C
:1020780000F44050704700BF800000F1804000F538
:10208800B840036823F4E04323F040039BB283F095
:10209800300343F4004343F080030360704700BFFC
:1020A800800000F1804000F5B840036823F48043C5
:1020B80023F070039BB283F4405343F4004343F08E
:1020C80080030360704700BF800000F1804000F586
:1020D800B84040F60F620368134043F4014343F0ED
:1020E80080030360704700BF800000F1804000F566
:1020F800B84040F60F620368134043F4004343F0CE
:1021080080030360704700BF800000F1804000F545
:10211800B84040F60F620368134043F4004343F0AD
:1021280080030360704700BF800000F1804000F525
:10213800B84040F60F620368134043F4014343F08C
:1021480080030360704700BF800000F1804000F505
:10215800B84040F60F620368134043F4014343F06C
:1021680080030360704700BF800000F1804000F5E5
:10217800B84040F60F620368134043F4004343F04D
:1021880080030360704700BF800000F1804000F5C5
:10219800B840006800F03000A0F11000B0FA80F0FC
:1021A80040097047800000F1804000F5B8400068A1
:1021B80000F44050A0F58050B0FA80F04009704714
:1021C800800000F1804000F5B84040F68F73026847
:1021D80013400360704700BF800000F1804000F5A5
:1021E800B84048F60F73026813400360704700BF99
:1021F800800000F1804000F5B84040F60F73026897
:10220800134043F4404343F080030360704700BF2A
:10221800800000F1804000F5B84040F60F73026876
:10222800134043F4004343F0C0030360704700BF0A
:10223800800000F1804000F5B84003685B0408D5D1
:10224800026840F60F73134043F4404343F08003A1
:1022580003607047800000F1804000F5B8400368D3
:102268005B0608D5026840F60F73134043F4004339
:1022780043F0C00303607047800000F1804000F520
:10228800B84041F40041026840F60F7341F0800104
:102298001340194301607047800000F1804000F549
:1022A800B840006800F00F00704700BF064B1B687D
:1022B8009BB203EBC00000F1005000F54050490804
:1022C8004000490001607047505C0040054A064BD9
:1022D800126892B202EBC000034449085B0049004F
:1022E80019607047505C004004300020064B1B68A2
:1022F8009BB203EBC00000F1005000F540504000D5
:10230800006880B2704700BF505C0040054A064B29
:10231800126892B202EBC00003445B00186880B2F6
:10232800704700BF505C004004300020044A054B51
:10233800126892B202EBC00003445B001960704758
:10234800505C0040023000203E290AD94B09C906DA
:1023580004BF03F1FF339BB29B0243F400430360C5
:1023680070474B08CA0748BF01339B020360704798
:102378000E4A0F4B126892B202EBC00003443E298A
:102388004FEA43030AD94A09C80604BF02F1FF32DB
:1023980092B2920242F400421A6070474A08C90792
:1023A80048BF013292021A60704700BF505C00407B
:1023B80006300020054A064B126892B202EBC000B4
:1023C80003445B001868C0F309007047505C004084
:1023D80002300020054A064B126892B202EBC00098
:1023E80003445B001868C0F309007047505C004064
:1023F8000630002030B40C4D0C4C2B682D68C00002
:1024080010FA83F310FA85F503F100532C4403F511
:1024180040536400490852085B00490052001960A3
:10242800226030BC704700BF505C00400430002080
:10243800064B1B689BB203EBC00000F1005000F58F
:10244800405049084000490001607047505C004016
:10245800054A064B126892B202EBC00003444908D1
:102468005B00490019607047505C00400430002050
:10247800064B1B689BB203EBC00000F1005000F54F
:1024880040504000006880B2704700BF505C004078
:10249800054A064B126892B202EBC00003445B0087
:1024A800186880B2704700BF505C004004300020BC
:1024B800012930B403D0022920D030BC70472B4CFE
:1024C8002B4B2168C00010FA81F10B443E2A4FEAD9
:1024D800430128D95309D2063CD12468254A013B37
:1024E8009BB210FA84F09B02024443F4004052006D
:1024F800086043F40043136030BC70471B4B1D68F1
:102508001C681C4BC00001F1005110FA85F501F55B
:10251800405110FA84F02944034449005B000A60E2
:1025280030BC1A607047246812F0010F4FEA52035A
:1025380010FA84F00F4A07D00244013352009B027C
:102548000B60136030BC7047024452009B020B6062
:102558001360F7E72468074A10FA84F09B020244E4
:1025680043F4004052000860C3E700BF505C0040DD
:10257800023000200630002001290CD0022900D0AA
:1025880070471349134B096889B201EBC000034433
:102598005B001A6070470E490E4B096889B201EB5F
:1025A800C00003443E2A4FEA43030AD95109D00622
:1025B80004BF01F1FF3189B2890241F40041196079
:1025C80070475108D20748BF013189021960704726
:1025D800505C00400230002001290CD0022900D0B4
:1025E80070471349134B096889B201EBC0000344D3
:1025F8005B001A6070470E490E4B096889B201EBFF
:10260800C00003443E2A4FEA43030AD95109D006C1
:1026180004BF01F1FF3189B2890241F40041196018
:1026280070475108D20748BF0131890219607047C5
:10263800505C004006300020054A064B126892B2F2
:1026480002EBC00003445B001868C0F30900704740
:10265800505C004002300020054A064B126892B2D6
:1026680002EBC00003445B001868C0F30900704720
:10267800505C0040063000200D490E4B0A68C0002F
:1026880010FA82F213445B001B6813F47C4F0DD1DF
:102698000A68094B10FA82F003445B001B68C3F315
:1026A8000903002B14BF0220002070470120704747
:1026B800505C00400630002002300020012911D073
:1026C800022900D07047800000F1804000F5B84032
:1026D80040F60F730268134043F4404343F080030D
:1026E80003607047800000F1804000F5B84040F674
:1026F8000F730268134043F4004343F0C0030360C0
:10270800704700BF41EA0020704700BFC3B2000A0B
:1027180040EA0320704700BF10B40649064C074A38
:1027280000204FF43F4320600B805DF8044B13609A
:10273800704700BF480E0020445C0040405C0040E9
:1027480070B500F07F0528460E4694B2FFF7CEFD1F
:10275800224601463046FFF7A5FB28462146FFF7EB
:10276800E5FD002070BD00BF70B500F07F0528466C
:102778000E46FFF72FFE04462846FFF7C7FD224600
:1027880001463046FFF7AAFB204670BD014B0122E7
:102798001A607047BC000020F8B50320FFF71AFE46
:1027A800174C02464FF4887116482260FFF796FBD3
:1027B8002568154895B1154C124F154E00222378FF
:1027C800DBB2591CC9B22170B95CC9B2F154038893
:1027D800013201339BB2AA420380F0D103880A4A2E
:1027E8009BB2B3F5807F05D90A4B4FF48070012165
:1027F800108019700320BDE8F840FFF751BC00BFF6
:10280800500E0020C40A0020EC0D0020650A0020AC
:10281800EC0C0020660A0020B0F1A04F08B516D0D5
:10282800114B984213D0114B984204D003F5807392
:10283800984200D008BD4FF00050012101F0C2F8C5
:102848004FF000500021BDE8084001F0BBB84FF040
:102858008050012101F0B6F84FF080500021BDE80A
:10286800084001F0AFB800BF00010050000400505C
:10287800F0B583B08B690F6801934B688E68CD689B
:102888000C694A69D0F80CC0DFF82CE01F433E43BE
:1028980035432C43019B224313430CEA0E0E43EAB3
:1028A8000E03C3600A7F036B013A23F00F0313433F
:1028B800036303B0F0BD00BF07C0FFFD0023012282
:1028C8000277036043608360C3600361436183618F
:1028D800704700BFF0B591E81040CA684B690F69AE
:1028E8008E690D7AC16C4EEA040141EA022141EA7F
:1028F800873242EA035242EA86636A1E1343C3647C
:10290800F0BD00BF01230022026042600372C36071
:102918000361436183617047B0F1A04FF0B515D0F2
:10292800174B984212D0174B88689D68164BCC6895
:1029380091E8440032432B400243097C1A4342EA9F
:10294800043343EA01230F4A9360F0BD0F4B8C68B0
:102958009F680D4ACB680E7C91E820404EEA05013D
:102968003A4021430A4342EA0332B0F1A04F42EA17
:10297800062302D0024A9042E5D1044A9360F0BD92
:102988000001005000070050E010FCFF0003005059
:102998000023036043608360C3600374704700BF13
:1029A800836819B943F002038360704743F0010359
:1029B80083607047836843F000438360704700BFBB
:1029C800D0F8B400704700BFC0F8B410704700BF1B
:1029D800836823F08043836083681943816070476C
:1029E8008068C00F704700BF836843F002038360AC
:1029F800704700BF8068C0F340007047836823F0C9
:102A080040538360836819B943F00053836070476B
:102A180043F080538360704701233AB9D0F8B0205F
:102A28008B4022EA0303C0F8B0307047D0F8B020DA
:102A38008B401343C0F8B030704700BFC36819B962
:102A480023F40013C360704743F40013C360704756
:102A5800C36819B923F48043C360704743F48043C3
:102A6800C3607047C36823F0E0731943C1607047BF
:102A7800036A23F07F6323F470230362036A43EA43
:102A880001410162036A23F47F6323F00F030362A9
:102A9800036A1A4302627047436A23F47F0343625E
:102AA800436A43EA01414162436A23F0FF034362F8
:102AB800436A1A4342627047836A23F47F0383623E
:102AC800836A43EA01418162836A23F0FF038362D8
:102AD800836A1A4382627047C36823F0F84343EA63
:102AE8008161C160704700BFD0F8A030D0F8A02045
:102AF80010B4054C1C40012322438B401343C0F8FB
:102B0800A0305DF8044B70470100F8FFD0F8A430FE
:102B1800D0F8A42010B4054C1C40012322438B405C
:102B28001343C0F8A4305DF8044B70470100F8FF68
:102B3800B0F1A04F09D0094B984206D0084A9368D3
:102B480039B923F4000393607047064A9368002953
:102B5800F7D043F400039360704700BF00010050B2
:102B68000007005000030050B0F1A04F09D0094BF6
:102B7800984206D0084A936839B923F480039360D1
:102B88007047064A93680029F7D043F4800393609E
:102B9800704700BF000100500007005000030050BC
:102BA800B0F1A04F09D0094B984206D0084A936863
:102BB80039B923F0807393607047064A93680029F7
:102BC800F7D043F080739360704700BF0001005056
:102BD8000007005000030050042A70B41ED802EB0E
:102BE80042025200056B1F26964001FA02F425EABC
:102BF800060222430263092921D80139426944693E
:102C080001EB410138228A4024EA0202426142690A
:102C180003318B401343436170BC7047092A1ED8A7
:102C2800053A02EB42025200456B1F26964001FA14
:102C380002F425EA0602224309294263DDD90A394A
:102C48008269846901EB410107228A4024EA020271
:102C5800826182698B401343836170BC70470E2A7E
:102C68000DD80A3A02EB42025200856B1F269640A5
:102C780001FA02F425EA060222438263BBE70F3A0F
:102C880002EB42025200C56B1F26964001FA02F47D
:102C980025EA06022243C263ADE700BF036B23F0B7
:102CA8000F030363036B013919430163704700BFC6
:102CB800C36823F47C63C360C3680A431A43C260D1
:102CC800704700BF836843F004038360704700BF08
:102CD8008068C0F380007047836843F01003836006
:102CE800704700BFC368013923F4602343EA4141B8
:102CF800C1607047C36819B923F48033C360704753
:102D080043F48033C3607047006C80B2704700BFE3
:102D1800B0F1A04F05D0044B984202D0034BD868BD
:102D28007047034BD86870470001005000070050F7
:102D380000030050036E23F0F8430366036E43EA72
:102D480081610166036E23F47F6323F00F0303663A
:102D5800036E1A4302667047436E23F0F8434366D6
:102D6800436E43EA81614166436E23F47F6323F037
:102D78000F034366436E1A4342667047836E23F01F
:102D8800F8438366836E43EA81618166836E23F428
:102D98007F6323F00F038366836E1A43826670474E
:102DA800C36E23F0F843C366C36E43EA8161C1660C
:102DB800C36E23F47F6323F00F03C366C36E1A4305
:102DC800C2667047036E19B923F000430366704763
:102DD80043F0004303667047436E19B923F000437C
:102DE8004366704743F0004343667047836E19B9E2
:102DF80023F000438366704743F0004383667047BF
:102E0800C36E19B923F00043C366704743F000430B
:102E1800C3667047C36819B923F00103C3607047DC
:102E280043F00103C3607047C36823F00203C36023
:102E3800C3681943C1607047092970B418D801EBF9
:102E4800410645690724B440B34025EA04042343F6
:102E58004361013A02EB4202C46C52004FF4F8534A
:102E6800934024EA030391401943C16470BC70473E
:102E7800A1F10A0404EB440485690726A640A3408F
:102E880025EA060423438361E3E700BFC36C0139E5
:102E980023F003031943C164704700BFC36C23F0D8
:102EA800FC03C364C36C0A431A43C264704700BF7F
:102EB800836843F008038360704700BF836843F06A
:102EC80020038360704700BF8068C0F3C00070476C
:102ED800C36819B923F00073C360704743F00073E7
:102EE800C3607047C36819B923F48013C36070477F
:102EF80043F48013C360704782B0002301930190AC
:102F0800019B803319440191019B186880B202B07B
:102F1800704700BF43681AB923EA0101416070474E
:102F280019434160704700BF0368194214BF01206C
:102F38000020704701607047B0F1A04F09D0064BE0
:102F4800984206D0054B1B680B4214BF0120002095
:102F58007047034B1B68F7E700010050000700505B
:102F680000030050B0F1A04F07D0064B984204D0A0
:102F7800054A1368194311607047044A13681943D6
:102F88001160704700010050000700500003005016
:102F98000368426889B211EA030003D0114214BFE2
:102FA80001200020704700BF036819430160704783
:102FB80030B40B4B00224FF0FC556FF0FC540C2042
:102FC80003211D605A609A60DA601A615C611862B8
:102FD80030BC5A629A62DA621A635963704700BF5A
:102FE800000401408379F0B5002B59D003680279B9
:102FF8004479DFF800E13D4E3D4D23F01F0101F11A
:10300800804101F5823103F01F07D1F800C0012388
:1030180003FA07F72CEA07070F60016821F01F0C75
:1030280001F01F015CF80E7003FA01F127EA0101B3
:103038004CF80E10016802F1804221F01F0702F5DA
:10304800823201F01F0152F807E003FA01F14EEA5B
:103058000101D151026822F01F0702F01F02B9597D
:1030680003FA02F221EA0202BA51026822F01F07AB
:1030780002F01F02795903FA02F221EA0202102C27
:103088007A511FD0016804F1804221F01F0002F537
:10309800823201F01F0114588B4023431350F0BDB6
:1030A8000379026803F1804322F01F0403F5823399
:1030B80002F01F021959012000FA02F221EA020265
:1030C8001A51F0BD026822F01F0102F01F028C594C
:1030D80003FA02F222438A51026822F01F0102F029
:1030E8001F024859934003434B51F0BD0804014067
:1030F8000C040140040401400023102242710360C3
:1031080003718371704700BF20F01F01054A10B496
:1031180000F01F008C580123834023438B505DF837
:10312800044B70471004014020F01F02054B00F0CB
:103138001F00D258012383401A4214BF01200020E7
:10314800704700BF1404014000F01F01012320F064
:103158001F00024A8B408350704700BF140401408F
:1031680020F01F0303F1804303F5823300F01F00B2
:10317800012219685B69824013EA020003D01142F8
:1031880014BF01200020704700F01F01012320F028
:103198001F00024A8B408350704700BF140401404F
:1031A800B0F1904F08B51BD02B4B984224D02B4B35
:1031B80098422DD02A4B984236D02A4B98423FD07D
:1031C800294B984200D008BD4FF48000012100F03F
:1031D800F9FB4FF480000021BDE8084000F0F2BB85
:1031E8004FF40030012100F0EDFB4FF400300021D6
:1031F800BDE8084000F0E6BB4FF48020012100F054
:10320800E1FB4FF480200021BDE8084000F0DABB64
:103218004FF40020012100F0D5FB4FF400200021DD
:10322800BDE8084000F0CEBB4FF48010012100F04B
:10323800C9FB4FF480100021BDE8084000F0C2BB74
:103248004FF40010012100F0BDFB4FF400100021E5
:10325800BDE8084000F0B6BB00040048000800487C
:10326800000C0048001000480014004800222DE916
:10327800F0471346D1F800E001274FF0030C04E0B3
:103288000133102B02F1020225D007FA03F404EAF5
:103298000E05A542F4D10E79741E012C0CFA02F425
:1032A8001BD9E443056891F807802C400460046842
:1032B800964026430660C4680CFA02F524EA050421
:1032C800C460C56808FA02F401332C43102BC460AB
:1032D80002F10202D9D1BDE8F087D0F808A091F830
:1032E800058091F806900CFA02F4E44304EA0A0A0D
:1032F800C0F808A0D0F808A008FA02F848EA0A08B6
:10330800C0F80880B0F804801FFA88F828EA050891
:10331800A0F80480B0F8048009FA03F949EA08051E
:10332800ADB28580BEE700BF00234FF6FF710122D2
:103338000160427103718371C371704741F4803336
:10334800C361C161C361C369C3697047038A194214
:1033580014BF012000207047008A80B2704700BF68
:10336800838A194214BF012000207047808A80B2E6
:10337800704700BF81617047018570470AB90185B0
:1033880070478161704700BF81827047CB0800EBAE
:10339800830001F0070110B48900046A0F238B40F1
:1033A80024EA03030362036A5DF8044B8A4013436B
:1033B8000362704740F0BF60024B40F40030D860B1
:1033C800704700BF00ED00E0C3785BB90378184888
:1033D8005A09203203F01F03012101FA03F340F8D0
:1033E80022307047F0B4134A4378D2688578017860
:1033F8000F4CD243C2F302220F26D640C2F1040773
:1034080003FA07F206EA0503134301F1604202F5E5
:1034180061421B01DBB282F800330378012203F01A
:103428001F015B098A4044F82320F0BC704700BFA5
:1034380000E100E000ED00E021F0604121F07F01B3
:10344800014B08439860704700ED00E0044A136997
:1034580019B923EA000010617047184310617047DA
:1034680000ED00E0044A136804280CBF43F004038D
:1034780023F004031360704710E000E0114B124A78
:103488001868124940F001001860586802405A60F4
:103498001A6822F0847222F480321A601A6822F4C0
:1034A80080221A605A6822F4FE025A60DA6A22F40C
:1034B8007F5222F03F02DA62186B00220140196342
:1034C8009A6070470010024000C0FFF8CCFC000F63
:1034D800024B00221A701870704700BF0210024099
:1034E800034A136823F0F80343EAC00010607047EA
:1034F80000100240014B1860704700BF00004242B4
:10350800064B1A6A22F001021A621A6A22F00402B1
:103518001A621A6A10431862704700BF001002400E
:10352800044B1A6A22F018021A621A6A10431862C7
:10353800704700BF00100240014B1860704700BF81
:1035480080044242044A536823F474135360536856
:10355800194308435060704700100240014B18603F
:10356800704700BF60004242034AD36A23F00F034A
:103578001843D062704700BF00100240014B18602A
:10358800704700BF4C004242014B1870704700BFA3
:1035980007100240034A536823F00303184350609E
:1035A800704700BF00100240024B586800F00C0042
:1035B800704700BF00100240034A536823F0F0032D
:1035C80018435060704700BF00100240034A536818
:1035D80023F4E06318435060704700BF00100240B6
:1035E800034A536823F4605343EAC00050607047AD
:1035F800001002409E4A536803F00C03042BF0B5F8
:1036080000F00481082B00F0EE809A49016003B1B4
:103618000023974D984C6A68C2F30312A65CF6B271
:1036280021FA06F242606F68C7F30227E75D22FAC3
:1036380007FEC0F808E06F68C7F3C227E75DFFB26E
:10364800FA40C260ED6AC5F3041504EB45052D8AFE
:10365800ADB215F0100F1CBFB3FBF5F50561844D35
:1036680008BF0161ED6AC5F3442504EB4504248ACB
:10367800A4B2E50644BFB3FBF4F444617C4C58BFE4
:103688004161246BE5065CBF7A4C8461784C48BF85
:103698008161246BA4065CBF764CC461744C48BF3E
:1036A800C161256BED053BD58B4200F0B980026204
:1036B800236B42626E4B1C6BA40740F082808262CF
:1036C8006B4B1A6B12F4403F66D1C0F82CE0684B84
:1036D8001A6B12F4402F4AD1C0F830E0644B1A6BD1
:1036E80012F4401F27D1C0F834E0614B1A6B12F472
:1036F800400F39D01A6B02F44002B2F5800F00F087
:103708009E801A6B02F44002B2F5000F00F0AC8004
:103718001B6B03F44003B3F5400F00F09280F0BD3B
:103728000262246BA505C4D58B42C2D1B742C0D171
:103738004B004362BEE71A6B02F44012B2F5801FD9
:1037480068D01A6B02F44012B2F5001F7CD01B6BD4
:1037580003F44013B3F5401F04BF464B4363444B87
:103768001A6B12F4400FC5D1C0F838E0F0BD1A6BDF
:1037780002F44022B2F5802F5BD01A6B02F440228B
:10378800B2F5002F64D01B6B03F44023B3F5402F30
:1037980004BF384B0363A1E71A6B02F44032B2F559
:1037A800803F39D01A6B02F44032B2F5003F53D053
:1037B8001B6B03F44033B3F5403F04BF2D4BC3628A
:1037C80085E71A6B02F00302012A27D01A6B02F070
:1037D8000302022A44D01B6B03F00303032B04BF2C
:1037E800244B83626CE753685468C3F38343991C82
:1037F800E30320D5D36A1F4A03F00F030133B2FB5A
:10380800F3F301FB03F30360194602E7194901606A
:103818000023FEE6416368E7C16258E781624FE72B
:10382800B7427FF444AF4B000362246BA60580D4F3
:103838003FE7016352E7114B03FB01F3E3E78163C1
:10384800F0BD0C4B8363F0BD4FF4004343634CE77A
:103858004FF40043036341E74FF40043C36236E784
:103868004FF4004383622BE74FF400438363F0BDBA
:103878000010024000127A00A401002000093D0057
:10388800064A030FD36A14BF23F4785323F4F8735A
:10389800D362024AD36A1843D062704700100240CC
:1038A800064A030F136B14BF23F0200323F0100301
:1038B8001363024A136B18431063704700100240E9
:1038C800064A030F136B14BF23F4007323F48073A9
:1038D8001363024A136B18431063704700100240C9
:1038E800030F013B042B09D8DFE803F01319031F6A
:1038F8000D00114A136B23F4402313630E4A136B14
:103908001843106370470C4A136B23F44003136386
:10391800F4E7094A136B23F003031363EEE7064A3F
:10392800136B23F440331363E8E7034A136B23F460
:1039380040131363E2E700BF00100240014B186018
:10394800704700BFD8004242024A136A1843106207
:10395800704700BF00100240014B1860704700BF5D
:10396800DC004242014B1860704700BF3C044242F1
:10397800014B1860704700BF40044242044A536933
:1039880019B923EA00005061704718435061704725
:1039980000100240044A936919B923EA00009061B3
:1039A800704718439061704700100240044AD36979
:1039B80019B923EA0000D06170471843D0617047F5
:1039C80000100240044A936A19B923EA0000906281
:1039D800704718439062704700100240044AD36849
:1039E80019B923EA0000D06070471843D0607047C7
:1039F80000100240044A136919B923EA0000106153
:103A0800704718431061704700100240044A137849
:103A180019B923EA000010707047184310707047F6
:103A280009100240430908D10F4B1A6800F01F0320
:103A380022FA03F000F001007047012B0BD0042B91
:103A4800094B0CBF5A685A6A00F01F0322FA03F0A8
:103A580000F001007047044B1A6A00F01F0322FAB5
:103A680003F000F0010070470010024000B583B079
:103A78000023019300E048B91120FFF7D3FF019B11
:103A880001330193019BB3F5A06FF4D11120FFF727
:103A9800C9FF003018BF012003B05DF804FB00BF68
:103AA800024A536A43F08073536270470010024021
:103AB800034B9B68184214BF01200020704700BFC9
:103AC80000100240014B1870704700BF0A100240F6
:103AD80008B5464B984227D0B0F1804F30D0444BC0
:103AE800984237D0434B98423ED0434B984245D0FA
:103AF800424B98424CD0424B984253D0414B98424B
:103B08005CD0414B984265D0404B984200D008BDEC
:103B18004FF480200121FFF761FF4FF4802000213E
:103B2800BDE80840FFF75ABF4FF400600121FFF7D6
:103B380055FF4FF400600021BDE80840FFF74EBF75
:103B480001200146FFF756FF01200021BDE808408B
:103B5800FFF750BF02200121FFF74CFF0220002190
:103B6800BDE80840FFF746BF04200121FFF742FFE8
:103B780004200021BDE80840FFF73CBF10200121C8
:103B8800FFF738FF10200021BDE80840FFF732BFDB
:103B980020200121FFF72EFF20200021BDE808404A
:103BA800FFF728BF4FF400500121FFF717FF4FF42C
:103BB80000500021BDE80840FFF710BF4FF48030E7
:103BC8000121FFF70BFF4FF480300021BDE80840CA
:103BD800FFF704BF4FF400300121FFF7FFFE4FF459
:103BE80000300021BDE80840FFF7F8BE002C014076
:103BF800000400400008004000100040001400408D
:103C080000340140004001400044014000480140A8
:103C1800284A038890429BB23CD002F50062904249
:103C280038D0B0F1804F35D0A2F59832904231D0DB
:103C380002F5806290422DD01F4A904231D002F5A1
:103C4800806290422DD00A8970B423F44073194CD5
:103C58004E680D889BB21343A0420380C662058557
:103C680012D0164B98420FD003F5406398420BD000
:103C780003F58063984207D003F58063984203D028
:103C88000123436170BC70478B7A0386012343612B
:103C980070BC70474A8823F070031343064A904269
:103CA800CDD103800B884A68C26203850123436132
:103CB800704700BF002C0140001000400034014054
:103CC80000234FF0FF3242600380038143808372F8
:103CD800704700BF01854261704700BF038823F029
:103CE80070031B041B0C1943018070474162704725
:103CF800C1627047406A7047008D80B2704700BF4C
:103D0800038829B923F002031B041B0C03807047A6
:103D18009BB243F002030380704700BF038829B9B0
:103D280023F004031B041B0C038070479BB243F071
:103D380004030380704700BF038829B923F4006394
:103D48001B041B0C038070479BB243F40063038081
:103D5800704700BF038829B923F080031B041B0C9C
:103D6800038070479BB243F080030380704700BF15
:103D7800038823F008031B041B0C038003889BB2F1
:103D880019430180704700BF038823F440731B0464
:103D98001B0C038003889BB219430180704700BF46
:103DA800038829B923F001031B041B0C0380704707
:103DB8009BB243F001030380704700BFF0B5046A6B
:103DC8008B898E88D1F800C0DFF87CE024F00104EC
:103DD8000462056A4768846925F0020524F4803284
:103DE8002B4322F07302704543EA060342EA0C02B1
:103DF80014D0144CA04211D004F54064A0420DD058
:103E080004F58064A04209D004F58064A04205D07E
:103E180089684760826141630362F0BDCC89B1F86B
:103E280010C0B1F806E04E8A23F0080327F4407565
:103E3800234323F004034CEA050443EA0E0344EA4F
:103E48000607E5E700340140002C0140F0B5046A9C
:103E58008D898B880F68184E24F010040462046A58
:103E6800D0F804E0826922F0807224F020042B4309
:103E780022F4E642B04244EA031342EA072209D098
:103E88000E4CA04206D08968C0F804E082618163C4
:103E98000362F0BDCF890E8A4C8ACD8823F0800357
:103EA80043EA07132EF4406E23F04003344343EAF9
:103EB80005134EEA840EE6E7002C01400034014069
:103EC800F0B5046A8D898B880F68174E24F48074C6
:103ED8000462046AD0F804E0C26924F400742B4335
:103EE80022F07302B04244EA032342EA070209D0EF
:103EF8000E4CA04206D08968C0F804E0C261C163D4
:103F08000362F0BDCF890E8A4C8ACD8823F4006302
:103F180043EA07232EF4405E23F48063344343EAE4
:103F280005234EEA041EE6E7002C01400034014058
:103F3800F0B5046AB1F80CE08B880F68104E24F4D1
:103F480080540462026A4568C46922F400524EEA49
:103F5800030324F4E644B04242EA033344EA072266
:103F680008D0084CA04205D089684560C261016448
:103F78000362F0BD0C8A25F4804545EA8415F3E711
:103F8800002C014000340140026A8B8822F4803200
:103F9800F0B5B1F80CE00C680262026A0E4E476890
:103FA800456D22F400324EEA030325F07005B04255
:103FB80042EA034345EA040208D0084CA04205D06F
:103FC80089684760426581650362F0BD0C8A27F401
:103FD800803747EA0447F3E7002C014000340140EA
:103FE800F0B5046AB1F80CE08B880F680F4E24F422
:103FF80080140462026A4568446D22F400124EEA95
:10400800030324F4E044B04242EA035344EA07229B
:1040180008D0074CA04205D0896845604265C16553
:104028000362F0BD25F40035F6E700BF002C01401F
:1040380000340140836D19B923F00053836570473C
:1040480043F0005383657047836D19B923F08043AB
:104058008365704743F0804383657047836D19B962
:1040680023F000438365704743F00043836570473E
:10407800002303608380C38083608381C3810382BC
:104088004382704701238B4010B4DB43046A9BB220
:10409800234021F00804036218307CB10439490830
:1040A80012020B585DF8044B23F0807323F4E043AD
:1040B8000B500B5892B21A430A50704749085DF8E2
:1040C800044B435823F4803323F070034350435880
:1040D8001A434250704700BF41637047816370477D
:1040E800C16370470164704781657047C165704757
:1040F800836923F4803323F0700319438161704787
:10410800836923F0807323F4E04343EA012181614A
:10411800704700BFC36923F070031943C16170473A
:10412800C36923F4E04343EA0121C161704700BF3A
:10413800436D23F07003194341657047436D23F4C1
:10414800E04343EA01214165704700BF836923F0DA
:104158000803194381617047836923F4006343EAC4
:1041680001218161704700BFC36923F00803194327
:10417800C1617047C36923F4006343EA0121C16147
:10418800704700BF436D23F008031943416570472A
:10419800436D23F4006343EA01214165704700BF82
:1041A800836923F00403194381617047836923F409
:1041B800806343EA01218161704700BFC36923F02E
:1041C80004031943C1617047C36923F4806343EA58
:1041D8000121C161704700BF836923F0800319433F
:1041E80081617047836923F4004343EA01218161B7
:1041F800704700BFC36923F080031943C16170474A
:10420800C36923F4004343EA0121C161704700BF39
:10421800436D23F08003194341657047436D23F4D0
:10422800004343EA01214165704700BF82684FF6A9
:10423800F77313408360836819438160704700BF38
:10424800036A23F00203194301627047036A23F0EB
:104258000803194301627047036A23F0200343EA05
:1042680001110162704700BF036A23F0800343EA2B
:1042780001110162704700BF036A23F4007343EA27
:1042880001210162704700BF036A23F4006343EA17
:1042980001210162704700BF036A23F4005343EA17
:1042A80001310162704700BF036A23F4003343EA17
:1042B80001410162704700BF036A23F4001343EA17
:1042C80001510162704700BF10B40123046A8B409A
:1042D80024EA03030362036A5DF8044B8A4013432C
:1042E8000362704710B40423046A8B4024EA030372
:1042F8000362036A5DF8044B8A4013430362704704
:104308000B88F0B56BB3042B49D0082B4E88036A91
:104318008C880A89CD8866D04EF6FF7119400162F3
:10432800C769D0F820E045F6FF7321020EEA0303BF
:1043380040F6FF4441EA02323C4043EA0633224356
:1043480043F4805392B29BB2C2610362C2694FF2D6
:10435800FF331340C361C2692B029BB21343C3618D
:10436800F0BD026A4C888B880E89CD8822F0010244
:1043780002628269016A22F0F302134344F00104E5
:1043880021F00A0243EA061322438361026282692A
:1043980022F00C02826183692B438361F0BD066AB7
:1043A8004B888C880F89CD884FF6EF7232400262B5
:1043B8008169066A1B0143F0100324024FF65F72FD
:1043C8009BB244EA073421F473413240134321433A
:1043D80081610362836923F440638361836943EAEB
:1043E80005238361F0BD4FF6FF6119400162C7697B
:1043F800D0F820E04FF2FF534FF60C710EEA03039A
:1044080044EA0212394043EA06230A4343F480731C
:1044180092B29BB2C2610362C3694FF6F3721A404B
:10442800C261C3692B43C361F0BD00BF00230122F1
:10443800828003804380C380038170474B888A88C9
:10444800F0B5002B0E88D0F820E00CBF022500251F
:10445800012A0CBF02240124002E3ED04FF6EF772C
:104468000EEA07070E89C9880762D0F818E0D0F865
:1044780020C01B0143F0100312024FF65F779BB276
:1044880042EA06322EF4734E0CEA070742EA0E029D
:104498003B4382610362836923F4406383618369D8
:1044A80043EA01238361036A23F0010303628269FB
:1044B800036A22F0F30245F0010542EA061223F0EE
:1044C8000A032B43224382610362836923F00C03AE
:1044D8008361836919438161F0BD0F89CE882EF00D
:1044E800010101628169D0F820E021F0F301114354
:1044F80043F001032EF00A02134341EA07118161D8
:104508000362836923F00C03836183693343836106
:10451800026A4FF6EF73134003628269016A4FF62D
:104528005F7322F473420B4042EA073243EA0513F1
:1045380043F0100342EA042484610362836923F48C
:1045480040638361836943EA06268661F0BD00BF44
:10455800406B7047806B7047C06B7047006C70474A
:10456800836923F00C038361836919438161704770
:10457800836923F440638361836943EA012181618C
:10458800704700BFC2694FF6F3731340C361C36934
:104598001943C161704700BFC2694FF2FF3313402E
:1045A800C361C369090289B21943C161704700BF79
:1045B800F0B50B88B1F802E08F88CE880D894C8958
:1045C8008A894EEA03033B4333432B432343134374
:1045D8009BB24364F0BD00BF436C23F47223436471
:1045E800436C194341EA024242647047436C23F02A
:1045F8003C734364436C194341EA02524264704776
:10460800436C19B923F480534364704743F48053CF
:1046180043647047436C19B923F08073436470474F
:1046280043F0807343647047002303804380838092
:10463800C380038143818381704700BF436C19B9EC
:10464800C3F30E034364704743F400434364704765
:1046580029B942684FF6FB731340436070474368BB
:1046680043F004034360704729B942684FF6FE736C
:10467800134043607047436843F001034360704749
:104688002AB9C368C94389B21940C1607047C36871
:104698001943C160704700BF4161704703691942FF
:1046A80014BF012000207047C94389B201617047D7
:1046B8000369C26811EA030003D0114214BF012044
:1046C80000207047C94389B2016170470A43A0F8C6
:1046D800482070472AB9C368C94389B21940C160E4
:1046E8007047C3681943C160704700BF29B9426861
:1046F8004FF6F773134043607047436843F008036D
:104708004360704782684FF6F873134083607047C0
:1047180082684FF68F73134019438160836843F0B2
:1047280007038360704700BF602970B41ED0046A15
:1047380024F0010404628469056A24F0F30442F059
:10474800010244F0010425F00A0544EA03132A4350
:104758008361026282684FF68F7313400B43836054
:10476800836843F00703836070BC7047056A4FF69F
:10477800EF742C4004628469066A120142F0100248
:1047880024F473444FF65F7592B244F48074354054
:1047980044EA03332A4383610262DBE710B4846886
:1047A80042EA0323E4B223439BB21943816083683E
:1047B8005DF8044B23F077039BB243F077038360E3
:1047C800704700BF10B4846842EA0323E4B223436D
:1047D8009BB21943816083685DF8044B43F48043BE
:1047E8008360704782684FF68F7313401943816066
:1047F800704700BF42684FF68F73134043604368A9
:1048080019434160704700BF436823F47003436055
:104818004368194341607047836823F4803323F069
:1048280007038360836819438160704782684FF685
:104838007F7313408360836819438160704700BFAA
:1048480010B48468E4B221430A4342EA032399B2CC
:1048580081605DF8044B7047F0B58768D0F818E0C0
:10486800046AA4B24FF6FC4524F0220422434FF612
:10487800F8760EEA05053E4042EA031345F48075D2
:1048880031439AB245F00105816085610262F0BD4D
:1048980029B942684FF67F731340436070474368F5
:1048A80043F0800343607047A0F85010704700BF82
:1048B80081F0004102E000BF83F0004330B54FEAC9
:1048C80041044FEA430594EA050F08BF90EA020F36
:1048D8001FBF54EA000C55EA020C7FEA645C7FEAC9
:1048E800655C00F0E2804FEA5454D4EB5555B8BFEC
:1048F8006D420CDD2C4480EA020281EA030382EA5D
:10490800000083EA010180EA020281EA0303362DEE
:1049180088BF30BD11F0004F4FEA01314FF4801CC1
:104928004CEA113102D0404261EB410113F0004FD3
:104938004FEA03334CEA133302D0524263EB43038A
:1049480094EA050F00F0A780A4F10104D5F1200E28
:104958000DDB02FA0EFC22FA05F2801841F1000183
:1049680003FA0EF2801843FA05F359410EE0A5F157
:1049780020050EF1200E012A03FA0EFC28BF4CF088
:10498800020C43FA05F3C01851EBE37101F000453E
:1049980007D54FF0000EDCF1000C7EEB00006EEB4B
:1049A8000101B1F5801F1BD3B1F5001F0CD34908D5
:1049B8005FEA30004FEA3C0C04F101044FEA44522C
:1049C80012F5800F80F09A80BCF1004F08BF5FEAB3
:1049D800500C50F1000041EB045141EA050130BD93
:1049E8005FEA4C0C404141EB010111F4801FA4F136
:1049F8000104E9D191F0000F04BF01460020B1FA8B
:104A080081F308BF2033A3F10B03B3F120020CDAC2
:104A18000C3208DD02F1140CC2F10C0201FA0CF0A0
:104A280021FA02F10CE002F11402D8BFC2F1200C05
:104A380001FA02F120FA0CFCDCBF41EA0C019040BB
:104A4800E41AA2BF01EB0451294330BD6FEA040404
:104A58001F3C1CDA0C340EDC04F11404C4F12002EF
:104A680020FA04F001FA02F340EA030021FA04F301
:104A780045EA030130BDC4F10C04C4F1200220FA58
:104A880002F001FA04F340EA0300294630BD21FA96
:104A980004F0294630BD94F0000F83F4801306BF5C
:104AA80081F480110134013D4EE77FEA645C18BF50
:104AB8007FEA655C29D094EA050F08BF90EA020FE7
:104AC80005D054EA000C04BF1946104630BD91EADF
:104AD800030F1EBF0021002030BD5FEA545C05D1E2
:104AE8004000494128BF41F0004130BD14F5800421
:104AF8003CBF01F5801130BD01F0004545F0FE4195
:104B080041F470014FF0000030BD7FEA645C1ABFC9
:104B1800194610467FEA655C1CBF0B46024650EA00
:104B2800013406BF52EA033591EA030F41F400212C
:104B380030BD00BF90F0000F04BF0021704730B5B2
:104B48004FF4806404F132044FF000054FF0000187
:104B580050E700BF90F0000F04BF0021704730B548
:104B68004FF4806404F1320410F0004548BF40421D
:104B78004FF000013EE700BF42004FEAE2014FEA72
:104B880031014FEA02701FBF12F07F4393F07F4F4D
:104B980081F06051704792F0000F14BF93F07F4F7F
:104BA800704730B54FF4607401F0004521F00041C2
:104BB80020E700BF50EA010208BF704730B54FF048
:104BC80000050AE050EA010208BF704730B511F04D
:104BD800004502D5404261EB41014FF4806404F185
:104BE80032045FEA915C3FF4DCAE4FF003025FEA07
:104BF800DC0C18BF03325FEADC0C18BF033202EB8F
:104C0800DC02C2F1200300FA03FC20FA02F001FAE8
:104C180003FE40EA0E0021FA02F11444C1E600BF87
:104C280070B54FF0FF0C4CF4E06C1CEA11541DBF3A
:104C38001CEA135594EA0C0F95EA0C0F00F0DEF805
:104C48002C4481EA030621EA4C5123EA4C5350EAEA
:104C5800013518BF52EA033541F4801143F480133B
:104C680038D0A0FB02CE4FF00005E1FB02E506F0CC
:104C78000042E0FB03E54FF00006E1FB03569CF021
:104C8800000F18BF4EF0010EA4F1FF04B6F5007F27
:104C980064F5407404D25FEA4E0E6D4146EB060699
:104CA80042EAC62141EA55514FEAC52040EA5E5022
:104CB8004FEACE2EB4F1FD0C88BFBCF5E06F1ED8CC
:104CC800BEF1004F08BF5FEA500E50F1000041EB03
:104CD800045170BD06F0004646EA010140EA0200B0
:104CE80081EA0301B4EB5C04C2BFD4EB0C0541EAD2
:104CF800045170BD41F480114FF0000E013C00F3E7
:104D0800AB8014F1360FDEBF002001F0004170BD0A
:104D1800C4F10004203C35DA0C341BDC04F1140423
:104D2800C4F1200500FA05F320FA04F001FA05F2AF
:104D380040EA020001F0004221F0004110EBD3707C
:104D480021FA04F642EB06015EEA430E08BF20EAA8
:104D5800D37070BDC4F10C04C4F1200500FA04F34B
:104D680020FA05F001FA04F240EA020001F00041DD
:104D780010EBD37041F100015EEA430E08BF20EA50
:104D8800D37070BDC4F1200500FA05F24EEA020E98
:104D980020FA04F301FA05F243EA020321FA04F0C7
:104DA80001F0004121FA04F220EA020000EBD3707E
:104DB8005EEA430E08BF20EAD37070BD94F0000F7E
:104DC8000FD101F00046400041EB010111F4801FB2
:104DD80008BF013CF7D041EA060195F0000F18BF63
:104DE800704703F00046520043EB030313F4801F9F
:104DF80008BF013DF7D043EA0603704794EA0C0F59
:104E08000CEA135518BF95EA0C0F0CD050EA41066E
:104E180018BF52EA4306D1D181EA030101F00041EB
:104E28004FF0000070BD50EA410606BF1046194613
:104E380052EA430619D094EA0C0F02D150EA01361F
:104E480013D195EA0C0F05D152EA03361CBF104660
:104E580019460AD181EA030101F0004141F0FE41FF
:104E680041F470014FF0000070BD41F0FE4141F483
:104E7800780170BD70B54FF0FF0C4CF4E06C1CEA83
:104E880011541DBF1CEA135594EA0C0F95EA0C0F38
:104E980000F0A7F8A4EB050481EA030E52EA0335F3
:104EA8004FEA013100F088804FEA03334FF0805514
:104EB80045EA131343EA12634FEA022245EA111541
:104EC80045EA10654FEA00260EF000419D4208BFF2
:104ED800964244F1FD0404F5407402D25B084FEA9F
:104EE8003202B61A65EB03055B084FEA32024FF44B
:104EF80080104FF4002CB6EB020E75EB030E22BFA8
:104F0800B61A754640EA0C005B084FEA3202B6EB67
:104F1800020E75EB030E22BFB61A754640EA5C0016
:104F28005B084FEA3202B6EB020E75EB030E22BFA6
:104F3800B61A754640EA9C005B084FEA3202B6EBA7
:104F4800020E75EB030E22BFB61A754640EADC0066
:104F580055EA060E18D04FEA051545EA16754FEAC8
:104F680006164FEAC30343EA52734FEAC2025FEAE6
:104F78001C1CC0D111F4801F0BD141EA00014FF075
:104F880000004FF0004CB6E711F4801F04BF014346
:104F98000020B4F1FD0C88BFBCF5E06F3FF6AFAE62
:104FA800B5EB030C04BFB6EB020C5FEA500C50F1F2
:104FB800000041EB045170BD0EF0004E4EEA113175
:104FC80014EB5C04C2BFD4EB0C0541EA045170BD7C
:104FD80041F480114FF0000E013C90E645EA060EC0
:104FE8008DE60CEA135594EA0C0F08BF95EA0C0FEE
:104FF8003FF43BAF94EA0C0F0AD150EA01347FF436
:1050080034AF95EA0C0F7FF425AF104619462CE70C
:1050180095EA0C0F06D152EA03353FF4FDAE10466F
:10502800194622E750EA410618BF52EA43067FF4C0
:10503800C5AE50EA41047FF40DAF52EA43057FF450
:10504800EBAE12E74A0011D212F5001211D20DD5BB
:105058006FF47873B3EB62520ED44FEAC12343F076
:10506800004343EA505323FA02F070474FF0000020
:10507800704750EA013002D14FF0FF3070474FF0CF
:10508800000070477BB972B90029BEBF00204FF0FD
:10509800004106E008BF00281CBF6FF000414FF038
:1050A800FF3000F03BB882B0EC462DE9005000F02C
:1050B80005F8DDF804E002B00CBC70472DE9F041BA
:1050C800069C154606460F46984600F029F805FB4B
:1050D80001F300FB0838A5FB0023B21A434467EB31
:1050E8000303C4E90023BDE8F08100BF2DE9F041C6
:1050F800069C904606460F461D4600F05FF900FBE9
:1051080005F5A0FB082308FB0155B21A2B4467EBF1
:105118000303C4E90023BDE8F08100BF704700BF66
:1051280000292DE9F043C0F2A6800026002BC0F22A
:105138009C80884694469E46154604460F46002B9A
:105148003DD18A4259D9B2FA82F33BB1C3F1200268
:105158009F4020FA02F29D4017439C40290C220CE4
:10516800B7FBF1FEA8B201FB1E7742EA074700FB36
:105178000EF3BB420AD97F190EF1FF3280F0058188
:10518800BB4240F20281AEF1020E2F44FF1AA4B2D4
:10519800B7FBF1F301FB137744EA074700FB03F081
:1051A800B84208D97F1903F1FF3280F0F080B84285
:1051B80040F2ED80023B43EA0E43002203E08B42BB
:1051C8000FD900221346341C18BF012460424FF047
:1051D800000565EB45015840514000196941BDE89B
:1051E800F083B3FA83F2002A40F086808B4202D320
:1051F800844500F2DB800123E5E712B90123B3FB04
:10520800F2F5B5FA85F000283BD1781B4FEA154E28
:105218001FFA85FC0122B0FBFEF8210C0EFB1807D3
:1052280041EA07470CFB08F3BB4207D97F1908F18D
:10523800FF3102D2BB4200F2BD808846FF1AA4B2F9
:10524800B7FBFEF30EFB137744EA07470CFB03FC9E
:10525800BC4507D97F1903F1FF3102D2BC4500F2E2
:10526800A7800B4643EA0843ADE752426FEA0606B9
:1052780063EB43035DE7404261EB41014FF0FF36CA
:1052880054E7C0F1200224FA02F107FA00F385403E
:105298004FEA154ED7401943B7FBFEF20B0C0EFB35
:1052A80012771FFA85FC43EA07430CFB02F79F427B
:1052B80004FA00F407D95B1902F1FF3074D29F4257
:1052C80072D9023A2B44DF1B89B2B7FBFEF80EFBFA
:1052D800187341EA03430CFB08F79F4208D95B198E
:1052E80008F1FF315CD29F425AD9A8F102082B4439
:1052F800D81B48EA02428EE7C2F120032CFA03F1D8
:105308000EFA02FE20FA03F741EA0E0E08FA02F03E
:1053180028FA03F14FEA1E453843B1FBF5F8030CB0
:1053280005FB18111FFA8EF743EA014107FB08F342
:105338008B420CFA02FC09D911EB0E0108F1FF3976
:1053480030D28B422ED9A8F102087144C91A80B212
:10535800B1FBF5F305FB131140EA014107FB03F725
:105368008F4208D911EB0E0103F1FF3016D28F429C
:1053780014D9023B714443EA0843C91BA3FB0C89B7
:10538800494509D305D000221DE79646FEE6134697
:1053980011E794404445F6D2013BF4E70346EAE7B7
:1053A8008846A5E7C846D1E702468CE713460AE7D0
:1053B800023B57E7A8F102082F443FE72DE9F041E7
:1053C800002B44D18A42154604464FD9B2FA82F7D7
:1053D8000E464FB1C7F12003B94020FA03F602FA8E
:1053E80007F50E4300FA07F44FEA154E230CB6FBF7
:1053F800FEF0AFB20EFB106143EA014307FB00F178
:10540800994209D95B1900F1FF3280F0EC8099428A
:1054180040F2E98002382B445A1AA4B2B2FBFEF3D8
:105428000EFB132244EA024207FB03F7974208D90E
:10543800521903F1FF3180F0D880974240F2D580AD
:10544800023B43EA004000263146BDE8F0818B422A
:1054580047D8B3FA83F6002E48D18B4202D3824252
:1054680000F2CD8001203146BDE8F08112B9012556
:10547800B5FBF2F5B5FA85F8B8F1000F77D14A1BFC
:105488004FEA154EAFB20126B2FBFEF0230C0EFB1D
:10549800102143EA014107FB00F38B4207D9491960
:1054A80000F1FF3202D28B4200F2BA801046C91ACC
:1054B800A4B2B1FBFEF30EFB131144EA014407FB4F
:1054C80003F7A74208D9641903F1FF3280F08F80EF
:1054D800A74240F28C80023B43EA00403146BDE8D7
:1054E800F081002630463146BDE8F081C6F120043F
:1054F80022FA04F5B3402B4320FA04FC01FA06F71C
:1055080021FA04F54FEA134E4CEA0707B5FBFEF8FB
:10551800390C0EFB18551FFA83FC41EA05450CFBB4
:1055280008F1A94202FA06F204D9ED1808F1FF348D
:1055380067D3A0466D1ABFB2B5FBFEF40EFB145537
:1055480047EA05410CFB04FC8C4504D9C91804F151
:10555800FF355CD32C4644EA0844CCEB0101A4FB9C
:105568000223994248D344D0204600266CE7C8F16C
:10557800200401FA08F305FA08F520FA04F7E140D7
:105588004FEA154E1F43B1FBFEF63A0C0EFB1611FF
:105598001FFA85FC42EA01430CFB06F29A4200FA24
:1055A80008F407D95B1906F1FF3137D29A4235D989
:1055B800023E2B449B1ABFB2B3FBFEF00EFB103326
:1055C80047EA03430CFB00F1994207D95B1900F144
:1055D800FF3221D299421FD902382B445A1A40EA85
:1055E8000646674650E7104616E70B4629E7134676
:1055F80072E7B0409042B7D2601E002624E73046DA
:1056080022E7A94295D9A8F102081D4492E78C45E2
:10561800A0D9023C19449EE71046DFE70E46C9E7C9
:105628000238294443E700BF844641EA000313F0E7
:1056380003036DD1403A41D351F8043B40F8043B91
:1056480051F8043B40F8043B51F8043B40F8043B54
:1056580051F8043B40F8043B51F8043B40F8043B44
:1056680051F8043B40F8043B51F8043B40F8043B34
:1056780051F8043B40F8043B51F8043B40F8043B24
:1056880051F8043B40F8043B51F8043B40F8043B14
:1056980051F8043B40F8043B51F8043B40F8043B04
:1056A80051F8043B40F8043B51F8043B40F8043BF4
:1056B80051F8043B40F8043B403ABDD2303211D394
:1056C80051F8043B40F8043B51F8043B40F8043BD4
:1056D80051F8043B40F8043B51F8043B40F8043BC4
:1056E800103AEDD20C3205D351F8043B40F8043B94
:1056F800043AF9D2043208D0D2071CBF11F8013B92
:1057080000F8013B01D30B8803806046704700BF57
:10571800082A13D38B078DD010F003038AD0C3F166
:105728000403D21ADB071CBF11F8013B00F8013B48
:1057380080D331F8023B20F8023B7BE7043AD9D307
:10574800013A11F8013B00F8013BF9D20B780370DC
:105758004B7843708B788370604670474FF0FF3CFE
:1057680006E000BF4FF0010C02E000BF4FF0010C53
:105778004DF804CD4FEA410C7FEA6C5C4FEA430CCC
:1057880018BF7FEA6C5C1BD001B050EA410C0CBF1B
:1057980052EA430C91EA030F02BF90EA020F00207D
:1057A800704710F1000F91EA030F58BF994208BFE4
:1057B80090422CBFD8176FEAE37040F001007047A1
:1057C8004FEA410C7FEA6C5C02D150EA013C07D1F8
:1057D8004FEA430C7FEA6C5CD6D152EA033CD3D043
:1057E8005DF8040B704700BF8446104662468C463D
:1057F8001946634600E000BF01B5FFF7B7FF002870
:1058080048BF10F1000F01BD4DF808EDFFF7F4FF98
:105818000CBF012000205DF808FB00BF4DF808ED23
:10582800FFF7EAFF34BF012000205DF808FB00BF46
:105838004DF808EDFFF7E0FF94BF012000205DF868
:1058480008FB00BF4DF808EDFFF7CEFF94BF01201D
:1058580000205DF808FB00BF4DF808EDFFF7C4FF16
:1058680034BF012000205DF808FB00BF4FEA410269
:1058780012F5001215D211D56FF47873B3EB62529A
:1058880012D94FEAC12343F0004343EA505311F0C1
:10589800004F23FA02F018BF404270474FF0000053
:1058A800704750EA013005D111F0004008BF6FF091
:1058B800004070474FF00000704700BF53B94AB925
:1058C800002908BF00281CBF4FF0FF314FF0FF3000
:1058D800FFF724BC82B0EC462DE90050FFF706FC28
:1058E800DDF804E002B00CBC704700BF30B50024FE
:1058F800E3B293420DD2030F092B94BF30333733F1
:1059080001F8143001EB4403002500015D700134F7
:10591800EEE730BD13B54FF080500121FEF746F891
:1059280001200146FEF736F84FF400100121FEF77A
:1059380025F84FF400300121FEF720F84FF4C0534A
:105948000093032300248DF80530694602234FF0A5
:1059580090408DF804308DF806408DF80740FDF72B
:1059680085FC4FF090400B210E22FDF70FFD0C2116
:105978000E224FF09040FDF709FD1220FDF704FCC0
:1059880005481223036008234371012304718371BE
:10599800FDF728FB02B010BD040B002008B500205D
:1059A800FDF7CCFF4FF400000121BDE80840FDF7EA
:1059B800FDBF000008B50120FDF78AFDFEF756F887
:1059C8000F4B18701120FEF72DF80028FAD001208F
:1059D800FDF7C4FD1920FEF725F80028FAD00220AB
:1059E800FDF7D8FDFDF7E0FD0828FBD1054B9A7AB5
:1059F800054B0AB1052200E001221A6008BD00BF6C
:105A0800C00A0020240E00207C0A002037B54FF47D
:105A1800A060FDF7CFFC142301248DF80430002585
:105A2800022301A88DF805308DF806508DF807403F
:105A3800FDF7CAFC2A2301A88DF804308DF805402B
:105A48008DF80740FDF7C0FC062301A88DF8043047
:105A58008DF80550FDF7B8FC03B030BD20B10548FE
:105A68004FF48041FDF788BC02484FF48041FDF7B0
:105A780081BC00BF00100048094B10B518685C686D
:105A880008331B6818180AD006490822FFF72EFFAA
:105A9800204605490422BDE81040FFF727BF10BD86
:105AA800E8F7FF1FC2000020D20000203F2910B5F0
:105AB8004FF000030FD8094A8CB21360C021224668
:105AC800FCF7F0F921460120FCF730FC0120FCF737
